:100000000C942A000C943C000C943C000C943C0092
:100010000C943C000C943C000C943C000C943C0070
:100020000C943C000C943E000C943C000C943C005E
:100030000C943C000C943C000C943C000C943C0050
:100040000C943C000C943C000C943C000C943C0040
:100050000C943C0011241FBECFE5D8E0DEBFCDBF1D
:1000600020E0A0E6B0E001C01D92A136B207E1F7A2
:100070000E9456000C9468000C9400001F920F928E
:100080000FB60F9211248F9385E88DBD8EEE8CBD37
:100090008091600088BB809160008F5F80936000DA
:1000A0008F910F900FBE0F901F9018958FEF87BB09
:1000B0001FBC84E08EBD95E89DBD9EEE9CBD17BC27
:1000C00016BC1BBC1ABC19BC18BC89BF7894FFCFE6
:0400D000F894FFCFD2
:00000001FF
