:100000000C9415010C943D010C943D010C943D01A0
:100010000C943D010C943D010C943D010C943D0168
:100020000C943D010C9436090C943D010C943F0155
:100030000C943D010C943D010C943D010C943D0148
:100040000C943D010C943D010C943D010C943D0138
:100050000C943D01130322052205220522052205E9
:100060002205220522052205220522052205220558
:100070002205220522052205220522052205220548
:100080002205220522052205220522052205220538
:10009000220522052205220522052205220531021C
:1000A000C402FB062205220522052205220522059F
:1000B00022052702220522052205220522051D020E
:1000C00022052205FB06B305B305BF061006580539
:1000D000B3055805580558055805580558055805DD
:1000E0005805580558056364696E6F7073757858C4
:1000F0005B004E414E494E495459494E46CDCCCCF9
:100100003D0AD7233C17B7D13877CC2B329595E6EB
:10011000241FB14F0A000020410000C84200401CCB
:100120004620BCBE4CCA1B0E5AAEC59D7400407A18
:1001300010F35A00A0724E18090010A5D4E8000070
:10014000E87648170000E40B54020000CA9A3B000E
:100150000000E1F505000080969800000040420F85
:10016000000000A08601000000102700000000E849
:1001700003000000006400000000000A000000000E
:10018000000100000000002C76D888DC674F0823AF
:10019000DFC1DFAE59E1B1B796E5E3E453C63AE615
:1001A00051997696E8E6C28426EB898C9B62ED40F5
:1001B0007C6FFCEFBC9C9F40F2BAA56FA5F4900544
:1001C0005A2AF75C936B6CF9676DC11BFCE0E40D78
:1001D00047FEF520E6B500D0ED902E03009435776C
:1001E000050080841E080000204E0A000000C80C94
:1001F000333333330F986E12831141EF8D211489FD
:100200003BE65516CFFEE6DB18D1844B381BF77C56
:100210001D901DA4BBE424203284725E228100C99B
:10022000F124ECA1E53D27001B0E11241FBECFE5F4
:10023000D8E0DEBFCDBF10E0A0E6B0E0EEE9FFE21F
:1002400002C005900D92A03CB107D9F723E0A0ECC5
:10025000B0E001C01D92AA3FB207E1F711E0C5E18D
:10026000D1E004C02197FE010E944010C431D107A3
:10027000C9F70E94250D0C94CD170C9400001F9215
:100280000F920FB60F9211244F925F926F927F924E
:100290008F929F92AF92BF92CF92DF92EF92FF9296
:1002A0000F931F932F933F934F935F936F937F937E
:1002B0008F939F93AF93BF93EF93FF93CF93DF936E
:1002C000CDB7DEB7C553D140DEBFCDBFEDB6FEB66C
:1002D00082EB82BF8091E600882329F081508093D1
:1002E000E60020E097C080EF8BBB8BB380958ABB84
:1002F00089B32BB390E08095909530E082239323CF
:100300008032910571F01CF4409741F016C08034A2
:10031000910559F08038910561F00FC01092C3002B
:1003200013C081E08093C3000FC082E08093C300BC
:100330000BC083E08093C30007C02091E800222314
:1003400009F468C01092E7008FE08BBB8BB38095F7
:100350008ABB89B32BB390E08095909530E08223DF
:1003600093238230910569F01CF4019739F015C090
:100370008430910551F0089761F00FC01092C400CD
:1003800012C081E08093C4000EC082E08093C4005C
:100390000AC083E08093C40006C02091E8002223B5
:1003A000C9F11092E700E3ECF0E089E183A325A115
:1003B000222359F115A284A18823A1F0DF0114A200
:1003C000E081F0E011969C911197EE0FFF1FEE0F68
:1003D000FF1FED53FF4FE90FF11D938912969C9378
:1003E000282F18C0A3ECB0E0EC91F0E011968C91AE
:1003F0001197EE0FFF1FEE0FFF1FED53FF4FE80F9A
:10040000F11D838112968C9305C0E3ECF0E081E04E
:1004100085A384A3222309F4FCC6C090D5013091A2
:10042000C500832F90E0FC01FD97E933F10508F04A
:1004300009C3E65DFF4F0C944010E1E0EC0D0AF4B7
:10044000E0E0E3300CF0E2E0E093D501D4C4EFEF5C
:10045000EC0D0AF4E0E0E3300CF0E2E0E093D501CB
:10046000CAC425EBC29EF0011124E752FE4F9081D1
:10047000292F30E081E1829FD001839FB00D1124AC
:10048000AE0FBF1F1B968C91882391F0A82FB0E070
:10049000AD014150510961E1629FD001639FB00DF0
:1004A0001124AE0FBF1FA40FB51F1D964C9101C0A4
:1004B00040E2403261F1882391F1815091E1929FB5
:1004C000D001939FB00D1124AE0FBF1F1B968C93CC
:1004D0001B9790E0A80FB91F1D964C914E3251F416
:1004E00041E1429FD001439FB00D1124AE0FBF1FC9
:1004F0001C961C9261E1629FA001639F500D112424
:10050000E40FF51FE80FF91F80E2858708C09923E3
:1005100031F091509083E90FF11D8EE3818340917A
:10052000D50150E082E4849FF001859FF00D1124F5
:10053000E15BFE4F80819181009709F45CC40197D3
:1005400062E4649F9001659F300D1124F901E15B25
:10055000FE4F91838083482F4F70929582958F70C4
:1005600089279F708927992782959295907F982750
:10057000807F9827FC01E20FF31FE350FF4FE40F49
:10058000F11D80E2828B37C485EB8C9DD001112454
:10059000A752BE4F9E012F5F3F4FF90111928A95DE
:1005A000E9F7AE01445F5F4F8AEAFA0111928A953A
:1005B000E9F780E28E878F8F88AB22968FAF2297E4
:1005C00063968FAF6397A4968FAFA497E5968FAF8E
:1005D000E597CB57DF4F8883C558D040CA56DF4FC9
:1005E0008883C659D040C955DF4F8883C75AD04049
:1005F00095EBF90101900D929A95E1F792E4D901FA
:10060000E92F1D92EA95E9F78983A091D5019A9F78
:10061000D0011124A15FBE4F82E4F90101900D9237
:100620008A95E1F7E8C3D12C85EB8C9D80018D9DE7
:10063000100D112407521E4FFE01319688E2DF0192
:100640001D928A95E9F7EB54FF4F8AE0DF011D9276
:100650008A95E9F78EE38083C8010D960E946610A3
:1006600069837A838B839C83BB24B394A12CF80188
:1006700080818B1508F49AC02B2D30E081E1829F98
:10068000F001839FF00D1124E00FF11FE385EE23AD
:1006900079F0F0E0CF01019741E1429FF001439FE3
:1006A000F00D1124E00FF11FE80FF91F858501C03F
:1006B00080E2803209F47AC0F9013197E00FF11F2E
:1006C00081818A3231F541E1429FC001439F900D03
:1006D00011240D96800F911F0E9466109B01AC01A2
:1006E0008A2C912C880C991C880C991C81E090E034
:1006F0008C0F9D1F880E991ED4016D917D918D9157
:100700009C910E94D30FF401608371838283938351
:100710004BC08F3231F541E1429FC001439F900DA4
:1007200011240D96800F911F0E9466109B01AC0151
:100730008A2C912C880C991C880C991C81E090E0E3
:100740008C0F9D1F880E991ED4016D917D918D9106
:100750009C910E94940EF401608371838283938341
:1007600023C0E6EBF0E0EC0FFD1FEA0DF11D8083E6
:10077000A3948A2C912C41E1429FC001439F900D8C
:1007800011240D96800F911F0E946610880C991CF1
:10079000880C991CE1E0F0E0EC0FFD1FE80DF91D5D
:1007A0006083718382839383B39461CF49805A803D
:1007B0006B807C8011E0A116D0F1812F90E0FC01CC
:1007C000319726EB30E02C0F3D1FE20FF31F208105
:1007D0002B32A9F4880F991F880F991FE1E0F0E0F0
:1007E000EC0FFD1FE80FF91F2081318142815381F9
:1007F000C301B2010E94230E2B013C0116C02D3211
:10080000A1F4880F991F880F991FE1E0F0E0EC0F29
:10081000FD1FE80FF91F2081318142815381C301FF
:10082000B2010E94220E2B013C011F5FC4CFC30105
:10083000B2010E94060FA30192010E948F0E811146
:100840000AC08E010A541F4F20E04CE3C301B201DD
:100850000E94461009C08E010A541F4F23E04CE34A
:10086000C301B2010E944610CE018A509F4F9F9350
:100870008F9388E890E09F938F93CE018A549F4F87
:100880009F938F930E94731085EB8C9DD0018D9D5B
:10089000B00D1124A752BE4FAE014F5F5F4FFA015A
:1008A00011928A95E9F79E01245F3F4F8AEAF90188
:1008B00011928A95E9F780E28E878F8F88AB229616
:1008C0008FAF229763968FAF6397A4968FAFA4974D
:1008D000E5968FAFE597CB57DF4F8883C558D0405B
:1008E000CA56DF4F8883C659D040C955DF4F888329
:1008F000C75AD04095EBFA0101900D929A95E1F715
:1009000092E4DA01E92F1D92EA95E9F789832091B3
:10091000D50130E0929FD001939FB00D1124A15FCB
:10092000BE4F82E4FA0101900D928A95E1F70F9093
:100930000F900F900F900F900F90A4E8B0E04C91A3
:100940004423C1F182E4829FF001839FF00D1124C2
:10095000E15BFE4F808191816091FD007091FE000E
:100960008617970758F5582F5F70FC01F295E295AE
:10097000EF70EF27FF70EF27FF27E295F295F07FEA
:10098000FE27E07FFE2762E4629FC001639F900D17
:100990001124E80FF91FE350FF4FE50FF11D428BC3
:1009A000FC01E15BFE4F8081918101969183808300
:1009B0001196C5CFDE01AA50BF4F03C0DE01AA5079
:1009C000BF4F4C914423C1F182E4829FF001839F89
:1009D000F00D1124E15BFE4F808191816091FD005B
:1009E0007091FE008617970738F5582F5F70FC014D
:1009F000F295E295EF70EF27FF70EF27FF27E29562
:100A0000F295F07FFE27E07FFE2762E4629FC0013F
:100A1000639F900D1124E80FF91FE350FF4FE50F7E
:100A2000F11D428BFC01E15BFE4F808191810196BB
:100A3000918380831196C5CFF601E054FF4F81E08A
:100A40008083D9C18C2D90E0FC01E054FF4F4081A0
:100A50004423C9F042E4FE013196DF01542F1D9278
:100A60005A95E9F750E25983489FD001499FB00D4C
:100A70001124A15FBE4F01900D924A95E1F7FC0150
:100A8000E054FF4F108245EB489FF001499FF00D65
:100A90001124AF0147525E4F832F90E0FC01BA97BB
:100AA000E031F10508F06BC1ED59FF4F0C94401097
:100AB000DA01EC91EE2341F0AE2FB0E01197A40FD4
:100AC000B51F11968C9101C08EE3B1E1EB9FF0014F
:100AD00011243B96E40FF51F90819F30C1F13E3207
:100AE00011F49923B1F13D3211F4911134C03D322A
:100AF00011F48B3291F13D3211F48D3281F13E329D
:100B000079F4992341F0A92FB0E01197AE0FBF1FE0
:100B100012968C9101C080E28D3221F4822F03C0A5
:100B200080E001C080E081111CC03E3219F4418197
:100B3000411126C13E3211F481E08183DF01A90F0A
:100B4000B11D12963C939F5F9083822F19C180E064
:100B500017C180E015C180E013C180E011C180E0C1
:100B60000FC180E00DC1FA0160816A3009F450C004
:100B7000A62FB0E081E18A9FF0018B9FF00D112438
:100B8000E40FF51F8385882379F0E82FF0E0319793
:100B900091E19A9F80019B9F100D1124040F151F56
:100BA000E00FF11F958501C090E2903299F1882302
:100BB00079F0E82FF0E0319791E19A9F80019B9FB7
:100BC000100D1124040F151FE00FF11F958501C0B2
:100BD00090E29E3209F1882371F090E0019771E173
:100BE0007A9FF0017B9FF00D1124E40FF51FE80FB1
:100BF000F91F858501C080E28D3281F0FA01EA0F8C
:100C0000FB1F318381E0860FDA018C93822FB8C0FD
:100C100080E0B6C080E0B4C080E0B2C080E0B0C088
:100C2000FA0160816A3009F450C0A62FB0E081E17A
:100C30008A9FF0018B9FF00D1124E40FF51F83852F
:100C4000882379F0E82FF0E0319791E19A9F8001B5
:100C50009B9F100D1124040F151FE00FF11F9585A8
:100C600001C090E2903299F1882379F0E82FF0E00A
:100C7000319791E19A9F80019B9F100D1124040FE1
:100C8000151FE00FF11F958501C090E29E3209F11A
:100C9000882371F090E0019771E17A9FF0017B9FCA
:100CA000F00D1124E40FF51FE80FF91F858501C031
:100CB00080E28D3281F0FA01EA0FFB1F318381E07F
:100CC000860FDA018C93822F07C080E005C080E098
:100CD00003C080E001C080E0811152C0DA01EC91D4
:100CE000EE2341F0AE2FB0E01197A40FB51F11967F
:100CF0006C9101C06EE3B1E1EB9FF00111243B96D2
:100D0000E40FF51F90819F30D9F13E3211F4992301
:100D1000B9F13D3211F4911133C03D3211F46B320F
:100D200079F13D3211F46D3259F13E3279F4992363
:100D300041F0A92FB0E01197AE0FBF1F12964C9152
:100D400001C040E24D3221F4422F03C0482F01C0C0
:100D5000482F411115C03E3219F4818181110DC017
:100D60003E3211F481E08183DF01A90FB11D12969B
:100D70003C939F5F9083822F03C0842F01C080E04B
:100D80008823C9F16091C5002091D50130E082E44B
:100D9000829FF001839FF00D1124E15BFE4F808163
:100DA00091814091FD005091FE008417950718F540
:100DB000782F7F70FC01F295E295EF70EF27FF70BE
:100DC000EF27FF27E295F295F07FFE27E07FFE27D1
:100DD000A2E4A29FA001A39F500D1124E40FF51FD0
:100DE000E350FF4FE70FF11D628BFA01E15BFE4F0D
:100DF0000196918380830DB71EB7E9EEF0E0B080D5
:100E0000A180EDB7FEB7BA9CE019F10911240FB625
:100E1000F894FEBF0FBEEDBF2DB73EB72F5F3F4F1B
:100E200069018091C500843609F464C0853709F0F2
:100E3000C2C08091D70181509091D60199238CF046
:100E40003FE03B1580F020E130E02B193109492FBC
:100E5000092E000C550B2417350734F490E19B192B
:100E600003C090E001C090E088238CF043E04A1575
:100E700080F024E030E02A193109482F082E000CB8
:100E8000550B2417350734F484E08A1903C080E039
:100E900001C080E09093D6018093D701C114D104A2
:100EA00009F4FBC0912C812C9A1408F0F6C04B2D4C
:100EB00050E09091D5018091D701692D70E0680FC5
:100EC000711D8091D60162957295707F7627607F43
:100ED0007627A2E49A9F600D711D1124680F711D81
:100EE000615F7E4FC601880D911D0E946A108B0CB8
:100EF0009394DACF8091D7018F5F9091D601992397
:100F00008CF0BFE0BB1580F020E130E02B193109F7
:100F1000492F092E000C550B2417350734F490E1A6
:100F20009B1903C090E001C090E088238CF0E3E0BF
:100F3000EA1580F024E030E02A193109482F082E04
:100F4000000C550B2417350734F484E08A1903C0CC
:100F500080E001C080E09093D6018093D701C11456
:100F6000D10409F49AC0912C812C9A1408F095C0F0
:100F70004B2D50E09091D5018091D701692D70E003
:100F8000680F711D8091D60162957295707F7627EA
:100F9000607F7627F2E49F9F600D711D1124680F1A
:100FA000711D615F7E4FC601880D911D0E946A1000
:100FB0008B0C9394DACFE091D50122E4E29FF0010B
:100FC0001124E15BFE4F808191812FEF280F2F705C
:100FD0000197929582958F7089279F7089278A192A
:100FE0008F5F922F9B199F5F8AF03FE03B1580F047
:100FF00020E130E02B193109492F092E000C550B47
:101000002417350734F490E19B1903C090E001C028
:1010100090E088238CF043E04A1580F024E030E033
:101020002A193109482F082E000C550B24173507B3
:1010300034F484E08A1903C080E001C080E090931A
:10104000D6018093D701C114D10439F1912C812CA0
:101050009A1418F54B2D50E09091D5018091D7014D
:10106000692D70E0680F711D8091D60162957295AF
:10107000707F7627607F7627A2E49A9F600D711DAE
:101080001124680F711D615F7E4FC601880D911D8F
:101090000E946A108B0C9394DBCF85B3877F85BB4E
:1010A00082B38F7782BB88B38F7088BB82B38F7B0C
:1010B00082BB82B3806482BB82B38F7B82BBE7E555
:1010C000F2E03197F1F700C0000088B38F708061C3
:1010D00088BB82B38F7B82BB82B3806482BB82B3C6
:1010E0008F7B82BB87E592E00197F1F700C000009B
:1010F000AFE9BFE01197F1F700C0000040E030E039
:10110000F6018081882309F47FC0303109F03FC0A7
:101110004F5FE42FF0E0E05AFF4F8081806895B385
:10112000977F95BB92B39F7792BB90E058B39C0199
:10113000207F3327352F3F70232B28BB22B32F7BF3
:1011400022BB22B3206422BB22B32F7B22BBA7E5A4
:10115000B2E01197F1F700C0000028B32F7082951C
:101160009295907F9827807F9827822B88BB82B3A7
:101170008F7B82BB82B3806482BB82B38F7B82BB56
:10118000E7E5F2E03197F1F700C0000030E04230CF
:10119000D9F1D6018D916D0195B3986095BB92B34D
:1011A0009F7792BB90E028B3BC01607F77272F70B8
:1011B000622B68BB22B32F7B22BB22B3206422BBED
:1011C00022B32F7B22BBE7E5F2E03197F1F700C0B5
:1011D000000028B32F7082959295907F9827807F8A
:1011E0009827822B88BB82B38F7B82BB82B38064BB
:1011F00082BB82B38F7B82BB87E592E00197F1F7D8
:1012000000C000003F5F7CCF0FB6F8941EBF0FBE3A
:101210000DBF0FB6F894FEBE0FBEEDBECB5CDE4F29
:101220000FB6F894DEBF0FBECDBFDF91CF91FF9117
:10123000EF91BF91AF919F918F917F916F915F914E
:101240004F913F912F911F910F91FF90EF90DF9061
:10125000CF90BF90AF909F908F907F906F905F9056
:101260004F900F900FBE0F901F9018951F920F92E6
:101270000FB60F9211242F933F934F935F936F9369
:101280008F939F93AF93BF93EF93FF938BE08DBDAD
:101290008CED8CBDEDEFF0E0A8EDB1E09C9181E02C
:1012A00089278C93A9EEB0E011963C9111972C916F
:1012B00021502683178221876FEF630F6287809109
:1012C000D701882341F09091D801992321F09EE520
:1012D0009093050116C0E091D5019091D60142E4AA
:1012E000E49FF0011124A0E18A9FE00DF11D11247B
:1012F000E350FF4FE90FF11DE20FF11D928990932A
:10130000050190E044E050E0431B51098417950724
:1013100041F03091D801332321F086E78093080112
:101320001BC04091D5013091D601FC01E60FF11DA3
:10133000E295F295F07FFE27E07FFE27B2E44B9F17
:10134000E00DF11D1124E350FF4FE30FF11DE20FFB
:10135000F11D828980930801EDEFF0E0A78196816D
:10136000B0E0A05ABF4F8C91890F806895B3977FEA
:1013700095BB92B39F7792BB90E048B39C01207FCE
:101380003327342F3F70232B28BB22B32F7B22BB64
:1013900022B3206422BB22B32F7B22BBA7E5B2E09D
:1013A0001197F1F700C0000028B32F708295929535
:1013B000907F9827807F9827822B88BB82B38F7B72
:1013C00082BB82B3806482BB82B38F7B82BB87E5A2
:1013D00092E00197F1F700C00000808595B3986016
:1013E00095BB92B39F7792BB90E048B39C01207F5E
:1013F0003327342F3F70232B28BB22B32F7B22BBF4
:1014000022B3206422BB22B32F7B22BBA7E5B2E02C
:101410001197F1F700C0000028B32F7082959295C4
:10142000907F9827807F9827822B88BB82B38F7B01
:1014300082BB82B3806482BB82B38F7B82BB87E531
:1014400092E00197F1F700C00000A2859185B0E01D
:10145000A05ABF4F8C91890F806895B3977F95BB39
:1014600092B39F7792BB90E048B39C01207F3327D3
:10147000342F3F70232B28BB22B32F7B22BB22B3F8
:10148000206422BB22B32F7B22BBA7E5B2E01197D9
:10149000F1F700C0000028B32F7082959295907FDD
:1014A0009827807F9827822B88BB82B38F7B82BB53
:1014B00082B3806482BB82B38F7B82BB87E592E07C
:1014C0000197F1F700C00000838595B3986095BB44
:1014D00092B39F7792BB90E048B39C01207F332763
:1014E000342F3F70232B28BB22B32F7B22BB22B388
:1014F000206422BB22B32F7B22BBA7E5B2E0119769
:10150000F1F700C0000028B32F7082959295907F6C
:101510009827807F9827822B88BB82B38F7B82BBE2
:1015200082B3806482BB82B38F7B82BBE7E5F2E04B
:101530003197F1F700C00000FF91EF91BF91AF919B
:101540009F918F916F915F914F913F912F910F904C
:101550000FBE0F901F901895FC0180E1808382E000
:10156000818384B3886084BB81B3806881BB81B38D
:10157000806481BB87B3806F87BB8FE295E701975B
:10158000F1F700C0000085B3877F85BB82B38F77FA
:1015900082BB82B38F7B82BB87E090E20197F1F739
:1015A00000C0000088B38F70806388BB82B38F7BDC
:1015B00082BB82B3806482BB82B38F7B82BB87E5B0
:1015C00092E00197F1F700C0000087E090E20197F8
:1015D000F1F700C0000098B39F70906398BB82B38E
:1015E0008F7B82BB82B3806482BB82B38F7B82BBE2
:1015F00087E592E00197F1F700C0000087E090E2F4
:101600000197F1F700C0000098B39F70906398BBFA
:1016100082B38F7B82BB82B3806482BB82B38F7BB9
:1016200082BB87E592E00197F1F700C0000087E0F8
:1016300090E20197F1F700C0000098B39F709062AC
:1016400098BB82B38F7B82BB82B3806482BB82B340
:101650008F7B82BB87E592E00197F1F700C0000025
:1016600085B3877F85BB82B38F7782BB98B39F702A
:10167000906298BB82B38F7B82BB82B3806482BB53
:1016800082B38F7B82BB87E592E00197F1F700C0C0
:10169000000098B39F70906898BB82B38F7B82BB29
:1016A00082B3806482BB82B38F7B82BB87E592E08A
:1016B0000197F1F700C00000128285B3877F85BBD8
:1016C00082B38F7782BB88B38F7088BB82B38F7BE6
:1016D00082BB82B3806482BB82B38F7B82BB87E58F
:1016E00092E00197F1F700C0000088B38F70806826
:1016F00088BB82B38F7B82BB82B3806482BB82B3A0
:101700008F7B82BB87E592E00197F1F700C0000074
:101710000895CF93DF93CDB7DEB7C054D1090FB68C
:10172000F894DEBF0FBECDBF019709F08FC06F3FA9
:101730007F4F09F08BC022E030E0E9EDF1E02F3F70
:10174000AFEF3A0711F11082AF01455F5F4F8AEAB0
:10175000DA011D928A95E9F780E28587868F87A74F
:10176000DF01A05CBF4F8C9351968C9351968C9364
:1017700051968C9351968C9351968C9351968C9351
:10178000EB54FF4F21503109DACFEDEFF0E080E468
:1017900090E09183808380E190E09383828384E072
:1017A00090E09583848386EC2FE031E0D9011D928F
:1017B0008A95E9F780E2828B8093510180939301AF
:1017C0001092D5011092D6011092D7011092D80133
:1017D00089EE90E00E94AC0A80E1E4E6F0E0DE01F0
:1017E000519601900D928A95E1F780E1E4E7F0E0EF
:1017F000DE01119601900D928A95E1F780E1FE01DC
:101800003196DE01D19601900D928A95E1F780E143
:10181000FE017196DE01919601900D928A95E1F795
:10182000E3ECF0E014A215A280E1FE01F196A6EC33
:10183000B0E001900D928A95E1F780E1FE01B1964A
:10184000A6EDB0E001900D928A95E1F7C05CDF4F04
:101850000FB6F894DEBF0FBECDBFDF91CF910895D4
:10186000FC0185B3877F85BB82B38F7782BB88B34A
:101870008F7088BB82B38F7B82BB82B3806482BB54
:1018800082B38F7B82BB87E592E00197F1F700C0BE
:10189000000088B38F70806188BB82B38F7B82BB6E
:1018A00082B3806482BB82B38F7B82BBA7E5B2E048
:1018B0001197F1F700C000008FE99FE00197F1F761
:1018C00000C0000060E050E08081882309F47EC001
:1018D000503109F03FC06F5FA62FB0E0A05ABF4F54
:1018E0008C91806895B3977F95BB92B39F7792BB9D
:1018F00090E048B39C01207F3327342F3F70232B87
:1019000028BB22B32F7B22BB22B3206422BB22B38D
:101910002F7B22BBA7E5B2E01197F1F700C00000D2
:1019200028B32F7082959295907F9827807F982773
:10193000822B88BB82B38F7B82BB82B3806482BBE5
:1019400082B38F7B82BB87E592E00197F1F700C0FD
:10195000000050E06230D1F1219185B3886085BBF1
:1019600082B38F7782BB30E048B3C901807F99276B
:10197000942F9F70892B88BB82B38F7B82BB82B3ED
:10198000806482BB92B39F7B92BBA7E5B2E01197C4
:10199000F1F700C0000098B39F7022953295307F18
:1019A0003227207F3227292B28BB92B39F7B92BB03
:1019B00092B3906492BB92B39F7B92BB87E592E017
:1019C0000197F1F700C000005F5F7ECF08956623A6
:1019D00021F095B3986095BB03C095B3977F95BBF5
:1019E00092B39F7792BB90E048B39C01207F33274E
:1019F000342F3F70232B28BB22B32F7B22BB22B373
:101A0000206422BB22B32F7B22BBE7E5F2E03197B3
:101A1000F1F700C0000028B32F7082959295907F57
:101A20009827807F9827822B88BB82B38F7B82BBCD
:101A300082B3806482BB82B38F7B82BB87E592E0F6
:101A40000197F1F700C000000895CF93DF93CDB761
:101A5000DEB7E5970FB6F894DEBF0FBECDBF85E0C9
:101A600083BF92EB92BF1FBC93E09EBD9BE09DBDE8
:101A70009CED9CBD89BF789409EE10E0F80182814D
:101A8000982F9460928360E08C600E94E70C85E35D
:101A9000EBE8F0E0DE01119601900D928A95E1F7F6
:101AA000F801F080E1808DB79EB7FE9C8019910906
:101AB00011240FB6F8949EBF0FBE8DBFEDB7FEB7D1
:101AC00031965F018F01DE0111966C916623E1F181
:101AD0004091D50150E082E4849FF001859FF00D94
:101AE0001124E15BFE4F808191812091FD003091B6
:101AF000FE008217930740F5782F7F70FC01F29566
:101B0000E295EF70EF27FF70EF27FF27E295F29540
:101B1000F07FFE27E07FFE270F2EF2E4DF2EF02D70
:101B2000D49E9001D59E300D1124E20FF31FE35097
:101B3000FF4FE70FF11D628BF901E15BFE4F01964C
:101B4000918380831196C1CFE091D50122E4E29F79
:101B5000F0011124E15BFE4F808191812FEF280F6E
:101B60002F700197929582958F7089279F70892792
:101B70008E198F5F922F9F199F5F8AF04FE04F154C
:101B800080F020E130E02F193109492F092E000C97
:101B9000550B2417350734F490E19F1903C090E0EA
:101BA00001C090E088238CF0E3E0EE1580F024E0A3
:101BB00030E02E193109482F082E000C550B241740
:101BC000350734F484E08E1903C080E001C080E062
:101BD0009093D6018093D7010115110541F1D12CC5
:101BE000C12CDE1420F58F2D90E03091D50120918D
:101BF000D7016D2D70E0620F711D2091D6016295A5
:101C00007295707F7627607F7627F2E43F9F600DA4
:101C1000711D1124620F711D615F7E4FAC01C801FF
:101C20008C0D911D0E946A10CF0CD394DACFC501A0
:101C30000E94300CFFCF6FEF7FEF81E090E00E94B9
:101C4000890B08955058BB27AA270E943A0E0C947E
:101C5000810F0E94730F38F00E947A0F20F039F440
:101C60009F3F19F426F40C94700F0EF4E095E7FBF7
:101C70000C94410FE92F0E94920F58F3BA17620794
:101C800073078407950720F079F4A6F50C94CC0F20
:101C90000EF4E0950B2EBA2FA02D0B01B901900187
:101CA0000C01CA01A0011124FF27591B99F0593FCB
:101CB00050F4503E68F11A16F040A22F232F342F13
:101CC0004427585FF3CF469537952795A795F04061
:101CD0005395C9F77EF41F16BA0B620B730B840B76
:101CE000BAF09150A1F0FF0FBB1F661F771F881F2E
:101CF000C2F70EC0BA0F621F731F841F48F4879586
:101D000077956795B795F7959E3F08F0B0CF939577
:101D1000880F08F09927EE0F9795879508950E94F0
:101D20001D0F08F481E008950E94A80E0C94810F05
:101D30000E947A0F58F00E94730F40F029F45F3F21
:101D400029F00C94410F51110C94CD0F0C94700F8D
:101D50000E94920F68F39923B1F3552391F3951BD9
:101D6000550BBB27AA2762177307840738F09F5FBC
:101D70005F4F220F331F441FAA1FA9F335D00E2E29
:101D80003AF0E0E832D091505040E695001CCAF796
:101D90002BD0FE2F29D0660F771F881FBB1F261759
:101DA00037074807AB07B0E809F0BB0B802DBF0130
:101DB000FF2793585F4F3AF09E3F510578F00C94FF
:101DC000410F0C94CD0F5F3FE4F3983ED4F386951A
:101DD00077956795B795F7959F5FC9F7880F911D20
:101DE0009695879597F90895E1E0660F771F881F0C
:101DF000BB1F621773078407BA0720F0621B730BBF
:101E0000840BBA0BEE1F88F7E09508950E94B40F7B
:101E100090F09F3748F4911116F00C94CD0F60E0CC
:101E200070E080E89FEB089526F41B16611D711D7C
:101E3000811D0C94470F0C94620F990F0008550FE9
:101E4000AA0BE0E8FEEF16161706E807F907C0F040
:101E500012161306E407F50798F0621B730B840B48
:101E6000950B39F40A2661F0232B242B252B21F422
:101E700008950A2609F4A140A6958FEF811D811DC2
:101E8000089597F99F6780E870E060E008958823DF
:101E900071F4772321F09850872B762F07C06623A3
:101EA00011F499270DC09051862B70E060E02AF064
:101EB0009A95660F771F881FDAF7880F9695879592
:101EC00097F908959F3F31F0915020F487957795C9
:101ED0006795B795880F911D9695879597F9089501
:101EE0009FEF80EC089500240A9416161706180632
:101EF0000906089500240A9412161306140605060E
:101F00000895092E0394000C11F4882352F0BB0F9E
:101F100040F4BF2B11F460FF04C06F5F7F4F8F4F01
:101F20009F4F089557FD9058440F551F59F05F3F3C
:101F300071F04795880F97FB991F61F09F3F79F0EB
:101F400087950895121613061406551FF2CF46956D
:101F5000F1DF08C0161617061806991FF1CF8695EF
:101F600071056105089408950E949A0FA0F0BEE7DC
:101F7000B91788F4BB279F3860F41616B11D672F78
:101F8000782F8827985FF7CF869577956795B11D4D
:101F900093959639C8F30895E894BB276627772769
:101FA000CB0197F908950E94E60F0C94810F0E94CF
:101FB000730F38F00E947A0F20F0952311F00C94E3
:101FC000410F0C94700F11240C94CD0F0E94920FAE
:101FD00070F3959FC1F3950F50E0551F629FF0017C
:101FE000729FBB27F00DB11D639FAA27F00DB11D95
:101FF000AA1F649F6627B00DA11D661F829F22271E
:10200000B00DA11D621F739FB00DA11D621F839FA4
:10201000A00D611D221F749F3327A00D611D231F7A
:10202000849F600D211D822F762F6A2F11249F57C8
:1020300050409AF0F1F088234AF0EE0FFF1FBB1FCB
:10204000661F771F881F91505040A9F79E3F51058A
:1020500080F00C94410F0C94CD0F5F3FE4F3983E59
:10206000D4F3869577956795B795F795E7959F5F34
:10207000C1F7FE2B880F911D9695879597F90895C6
:10208000EE0FFF1F0590F491E02D0994EF920F934E
:102090001F93CF93DF93E80147FD02C034E001C0F6
:1020A00034E1042E000C550B57FF03C051954195A8
:1020B0005109E32E022F242FAE010E943913CE01C5
:1020C000DF91CF911F910F91EF90089566277727A9
:1020D0000C949314FB01DC0102C001900D9241505D
:1020E0005040D8F70895AEE0B0E0E9E7F0E10C9495
:1020F000971785E08C838B899C899A838983AE01AD
:10210000495E5F4F6D897E89CE0101960E9428123B
:102110002E96E2E00C94B31720FD09C0FC0123FDCC
:1021200005C022FF02C073836283518340830895F8
:1021300044FD17C046FD17C0AB01BC01DA01FB012D
:10214000AA0FBB1FEE1FFF1F1094D1F74A0F5B1F92
:102150006E1F7F1FCB01BA01660F771F881F991F63
:1021600009C033E001C034E0660F771F881F991F54
:102170003150D1F7620F711D811D911D08950F938C
:102180001F93CF93DF938C01C8010E94E516EC01E9
:1021900097FD08C00E94B916892BB1F7B801CE018E
:1021A0000E942317CE01DF91CF911F910F910895C7
:1021B0008F929F92AF92BF92EF92FF920F931F93D5
:1021C000CF93DF938C01D62F7A01B22E0E94E516B1
:1021D0009C0133272B32310531F02D32310561F46A
:1021E0008B2D8068B82ED15011F480E068C0C801F2
:1021F0000E94E51697FDF9CFCB2DCD7F2B2D2073B7
:1022000009F58033F9F4AA24AA94AD0E09F443C069
:10221000C8010E94E51697FD3EC09C012F7D332723
:102220002835310549F4C264D250A9F1C8010E9491
:10223000E51697FF07C02FC0B6FE02C0C26001C0FE
:10224000C261DA2D812C912C540120ED280F283009
:1022500080F0C4FF04C0B8010E94231719C02A30BF
:1022600040F0C6FFF8CF2F7D3FEE320F363098F7A3
:1022700027504C2FC501B4010E9498104B015C01FE
:10228000C260D15059F0C8010E94E51697FFDDCF1A
:10229000C1FD04C0AACF812C912C5401C7FF08C0F6
:1022A000B094A09490948094811C911CA11CB11CAA
:1022B0002C2FB501A401C7010E948C1081E0DF9191
:1022C000CF911F910F91FF90EF90BF90AF909F9093
:1022D0008F900895A0E2B0E0E0E7F1E10C948A1756
:1022E0005C01962E7A01F9018E010F5F1F4F680184
:1022F00080E2D8011D928A95E9F7D50113968C905A
:1023000080E090E0612C712C30E061E070E083FCB3
:10231000259183FE21918F01522E211103C080E06F
:1023200090E092C02E3511F4009751F1432F50E008
:10233000481759073CF42D3559F12D3219F47720FF
:1023400009F103C0772009F46AC0452D46954695EA
:102350004695D601A40FB11D452D47708B0102C0D3
:10236000000F111F4A95E2F7A8015C91452B4C9391
:10237000651459F0561410F45394E7CF5A94E5CFEE
:1023800031E004C07724739401C0712C0196BFCF53
:10239000772019F08E8180628E83311103C08824EA
:1023A000839417C0F6019E012F5D3F4F8081809579
:1023B00081932E173F07D1F7F2CFE114F10429F0F2
:1023C000D7018C93F70131967F019A94812C992043
:1023D000F9F0C5010E94E51697FD18C0FC01FF2722
:1023E00023E0F595E7952A95E1F7EC0DFD1D208199
:1023F00030E0AC014770552702C0359527954A95C6
:10240000E2F720FDDACFB5010E942317811087CFB4
:10241000E114F10411F0D7011C92C80115C0422F3C
:10242000469546954695D601A40FB11D422F47709B
:102430008B0102C0000F111F4A95E2F7A8015C91C1
:10244000452B4C93622EA2CFA096EFE00C94A617DA
:10245000A0E0B0E0EEE2F2E10C948A176C01EB012F
:102460005A01FC0117821682512CF601E380FE010D
:10247000E3FC8591E3FE8191182FEF01882309F495
:10248000EEC090E00E94B916892B21F0C6010E948F
:10249000BF10EBCF153241F4FE01E3FC1591E3FED2
:1024A0001191EF01153281F4C6010E94E51697FDE6
:1024B000D4C0412F50E09C01332724173507A9F2DF
:1024C000B6010E942317CBC01A3239F4E3FC1591F0
:1024D000E3FE1191EF0101E001C000E0F12C20EDDD
:1024E000210F2A3080F402606F2D70E080E090E0D0
:1024F00040E20E949810F62EFE01E3FC1591E3FEE7
:102500001191EF01ECCF01FF03C0F11003C0A7C090
:10251000FF24FA94183619F01C3651F010C0FE0151
:10252000E3FC1591E3FE1191EF01183641F40860C8
:102530000460FE01E3FC1591E3FE1191EF0111230C
:1025400009F48DC0612F70E086EE90E00E94C21603
:10255000892B09F484C000FD07C0F50180809180BB
:10256000C50102965C0102C0812C912C1E3651F4EB
:10257000F6014681578160E070E0202FC4010E947F
:102580008C1073CF1336A9F401FD02C0FF24F3941D
:10259000C6010E94E51697FD60C08114910429F0E0
:1025A000F4018083C40101964C01FA94F110F0CF3C
:1025B00050C01B3559F49E01A4016F2DC6010E9425
:1025C0006A11EC01892B09F044C03EC0C6010E948B
:1025D000BF1097FD42C01F3661F128F4143639F15F
:1025E000193651F128C0133771F0153701F123C0A6
:1025F0008114910429F0F4016082C40101964C0118
:10260000FA94FF2071F0C6010E94E5163C0197FD87
:1026100008C00E94B916892B59F3B601C3010E9464
:10262000231781149104A9F0F401108212C00062F2
:1026300003C0006101C00064202FA4016F2DC601FA
:102640000E94D810811105C0F6018381807329F49E
:1026500006C000FD0ACF539408CF552019F0852DF0
:1026600090E002C08FEF9FEFCDB7DEB7EFE00C94A4
:10267000A617A9E0B0E0EFE3F3E10C948D176A012F
:10268000122FB02E2BE3201720F0FF24F394F00E2E
:1026900002C02CE3F22E0F2D27E0AE014F5F5F4FFB
:1026A0000E94E115BC014981842F8970813031F08D
:1026B000E1FC06C0E0FE06C090E205C09DE203C05A
:1026C0009BE201C090E05E2D507143FF3CC0911130
:1026D00002C083E001C084E0811718F4212F281B79
:1026E00001C020E051110BC0F601822F30E2882397
:1026F00019F031938150FBCFC20ED11C20E09923F9
:1027000029F0D6019C93F60131966F01C60103961C
:10271000E2FE0AC03EE4D6013C9341E411964C939C
:10272000119712963C9306C03EE6F601308341E6CF
:1027300041833283FC01322F40E2332309F442C04B
:1027400041933150FACF42FF44C0911102C083E05F
:1027500001C084E0811718F4212F281B01C020E05C
:1027600051110BC0F601822F30E2882319F031930A
:102770008150FBCFC20ED11C20E0992329F0D60155
:102780009C93F60131966F01C6010396E2FE0BC0E1
:1027900039E4D6013C933EE411963C93119736E41C
:1027A00012963C9307C039E6F60130833EE631834A
:1027B00036E63283FC01322F40E2332319F0419395
:1027C0003150FBCFFC01E20FF11D10828EEF9FEF25
:1027D000A6C021E030E0911102C020E030E01616E2
:1027E00017061CF4FB01319602C0E1E0F0E02E0F69
:1027F0003F1FBB2021F0EB2DF0E0319602C0E0E05E
:10280000F0E02E0F3F1FE12FF0E02E173F071CF4E2
:10281000121B212F01C020E08E2D887159F4F60182
:10282000822F30E2882319F031938150FBCFC20E02
:10283000D11C20E0992329F0D6019C93F601319612
:102840006F0151110BC0F601822F90E3882319F01C
:1028500091938150FBCFC20ED11C20E00F2D060FAB
:102860009A81342F307144FF03C0913309F4015031
:10287000101624F4093018F008E001C001E0AB01A3
:1028800077FF02C040E050E0FB01E41BF50BA1E044
:10289000B0E0AC0FBD1FEA0FFB1F8EE2A82E4B016C
:1028A000801A91080B2D10E01195019511094F3FE9
:1028B000BFEF5B0721F4D601AC9211966D0164174E
:1028C00075072CF08416950614F4818101C080E30D
:1028D000415051093196D60111967D01401751079B
:1028E00024F0D6018C936701E2CF6417750739F4A1
:1028F000963320F4953319F4311101C081E3F601C8
:102900008083F701822F90E2882319F09193815000
:10291000FBCFF701E20FF11D108280E090E02996D5
:10292000ECE00C94A917A0E0B0E0E9E9F4E10C9424
:102930008D17EC016B016115710519F0FB01918395
:1029400080837E01FFEFEF1AFF0A0881802F90E05D
:102950000E94B916892B11F0E701F3CF0D3239F43B
:102960007E0182E0E80EF11C098111E008C00B3203
:1029700029F47E0192E0E90EF11C098110E0E701E3
:10298000219743E050E06AEF70E0CE010E94CD163F
:10299000892BC1F4239645E050E065EF70E0CE014D
:1029A0000E94CD16892B09F42596C114D10419F083
:1029B000F601D183C0831111F6C060E070E080E8B9
:1029C0009FE7FAC043E050E062EF70E0CE010E9462
:1029D000CD16892B59F4C114D10409F4E9C0F2E0F1
:1029E000EF0EF11CF601F182E082E2C020E030E05F
:1029F000A901C0E0D0E0F70180EDA82EA00E89E08B
:102A00008A1530F1912F9260B92E812F887012FFB4
:102A100004C0811124C0219622C081112197A5E014
:102A2000B0E00E947C17DC01CB01880F991FAA1F20
:102A3000BB1F9C01AD012A0D311D411D511D2839BF
:102A400089E93807480789E1580748F0166006C049
:102A50009EEFA9120AC013FD40C01860B12E8FEF7F
:102A6000E81AF80A00811B2DC6CF802F8F7D853490
:102A7000A1F580818D3211F4106106C08B3221F0F6
:102A8000319661E070E004C08181329662E070E0CE
:102A900080538A3018F0E61BF70B1FC060E070E02F
:102AA00060389CE079075CF4DB01AA0FBB1FAA0F1A
:102AB000BB1F6A0F7B1F660F771F680F711D319652
:102AC000DF0111978C9180538A3050F314FF03C0BB
:102AD000719561957109C60FD71F11FF08C0C11408
:102AE000D10429F0CF010197F60191838083CA01B7
:102AF000B9010E943C17212F2370233019F04B019C
:102B00005C0106C04B015C01B7FAB094B7F8B09411
:102B100020E030E0A901C501B4010E948F0E882396
:102B200009F43EC0D7FF06C0D195C195D10901E196
:102B300011E002C009E211E06801F8E1CF1AD10802
:102B400090E2E92EF12CCE15DF0574F0F801259105
:102B5000359145915491C501B4010E94D30F4B01A9
:102B60005C01CE19DF09EFCF04501109F594E79409
:102B70000C151D0541F78A2D880F8B2D881F8F3F5F
:102B800049F020E030E0A901C501B4010E948F0E98
:102B9000811106C082E290E09093F9038093F803DC
:102BA000C501B40109C060E070E080E89FEF04C097
:102BB00060E070E080EC9FE7CDB7DEB7ECE00C940E
:102BC000A917283008F027E03327DA01990F311DC3
:102BD00087FD916000966105710539F432602E5FC2
:102BE0003D9330E32A95E1F708959F3F30F0803818
:102BF0007105610509F03C5F3C5F3D93913008F041
:102C00008068911DDF93CF931F930F93FF92EF92F4
:102C1000192F987F9695E92F96959695E90FFF279E
:102C2000E957FE4F99273327EE24FF24A701E70138
:102C300005900894079428F4360FE71EF81E491FE4
:102C4000511D660F771F881F991F0694A1F70590E5
:102C5000079428F4E70EF81E491F561FC11D770F71
:102C6000881F991F661F0694A1F70590079428F402
:102C7000F80E491F561FC71FD11D880F991F661FC9
:102C8000771F0694A1F70590079420F4490F561F6B
:102C9000C71FD81F990F661F771F881F0694A9F7B3
:102CA00084911095177041F0D695C7955795479523
:102CB000F794E7941A95C1F7EDE2F1E06894159066
:102CC000159135916591959105907FE27395E11885
:102CD000F10A430B560BC90BD009C0F7E10CF11EEA
:102CE000431F561FC91FD01D7EF4703311F48A95FF
:102CF000E6CFE894015030F0080F0AF400270217DD
:102D000008F4202F2395022F7A3328F079E37D935E
:102D10002A95E9F710C07D932A9589F60694979530
:102D20006795379517951794E118F10A430B560BE1
:102D3000C90BD00998F023957E9173957A3308F0EA
:102D400070E37C932013B8F77E9170617D9330F02F
:102D5000839571E37D9370E32A95E1F71124EF9059
:102D6000FF900F911F91CF91DF91992787FD90954B
:102D7000089591110C947917803219F0895085507B
:102D8000C8F70895FC010590061621F00020D9F738
:102D9000C00108953197CF010895FB01DC01415036
:102DA000504088F08D9181341CF08B350CF4805E9E
:102DB000659161341CF06B350CF4605E861B61110B
:102DC00071F3990B0895881BFCCFCF93DF93EC012F
:102DD0002B8120FF33C026FF0AC02F7B2B838E81DF
:102DE0009F8101969F838E838A8190E029C022FF74
:102DF0000FC0E881F9818081082E000C990B0097A3
:102E000019F420622B831AC03196F983E8830EC02F
:102E1000EA85FB85099597FF09C02B81019611F082
:102E200080E201C080E1822B8B8308C02E813F812C
:102E30002F5F3F4F3F832E83992702C08FEF9FEF75
:102E4000DF91CF910895FB01238120FF12C026FD61
:102E500010C08F3F3FEF930761F082832F7D206486
:102E6000238326813781215031093783268399278F
:102E700008958FEF9FEF0895E89409C097FB3EF403
:102E800090958095709561957F4F8F4F9F4F9923B7
:102E9000A9F0F92F96E9BB279395F6958795779535
:102EA0006795B795F111F8CFFAF4BB0F11F460FFF5
:102EB0001BC06F5F7F4F8F4F9F4F16C0882311F04D
:102EC00096E911C0772321F09EE8872F762F05C061
:102ED000662371F096E8862F70E060E02AF09A95FC
:102EE000660F771F881FDAF7880F9695879597F9F1
:102EF00008959927882708950E94BE17A59F900DD1
:102F0000B49F900DA49F800D911D112408952F92C0
:102F10003F924F925F926F927F928F929F92AF9269
:102F2000BF92CF92DF92EF92FF920F931F93CF93B6
:102F3000DF93CDB7DEB7CA1BDB0B0FB6F894DEBF4D
:102F40000FBECDBF09942A88398848885F846E8473
:102F50007D848C849B84AA84B984C884DF80EE80BD
:102F6000FD800C811B81AA81B981CE0FD11D0FB6C6
:102F7000F894DEBF0FBECDBFED010895A29FB00152
:102F8000B39FC001A39F700D811D1124911DB29F9D
:0E2F9000700D811D1124911D0895F894FFCF3E
:102F9E00004014543738392F3435362D31323372D0
:102FAE0063303D6C3738392A3435362B3132337530
:102FBE0062302E64523D2000257300414141414252
:102FCE0042424243434343444444444545454546B7
:102FDE004646464747474748484848494949494A67
:102FEE004A4A4A4B4B4B4B4C4C4C4C4D4D4D4D0065
:00000001FF
