:100000000C942B000C9453000C9453000C9453004C
:100010000C9453000C9453000C9453000C94530014
:100020000C9453000C9453000C9453000C946900EE
:100030000C9453000C9453000C9453000C945300F4
:100040000C9453000C9453000C9453000C945300E4
:100050000C9453008B0111241FBECFE5D8E0DEBF06
:10006000CDBF10E0A0E6B0E0EAE7F3E002C0059003
:100070000D92AE37B107D9F720E0AEE7B0E001C08E
:100080001D92A838B207E1F710E0CBE2D0E004C03F
:100090002197FE010E94B501CA32D107C9F70E941B
:1000A0007D010C94BB010C940000019789F46F3F13
:1000B0007F4F71F41092830080E0843038F4E82F91
:1000C000F0E0ED57FF4F11828F5FF7CF10927E0067
:1000D00008951F920F920FB60F9211240F931F9342
:1000E0002F933F934F935F936F937F938F939F9340
:1000F000AF93BF93CF93DF93EF93FF9382EB82BFD6
:1001000080918200882329F081508093820080E0D2
:100110006AC080EF8BBB8BB380958ABB89B390E0BC
:10012000809590952BB330E0822393238032910504
:1001300071F01CF4409741F053C08034910559F0A0
:100140008038910561F04CC010927F000BC081E0B7
:1001500080937F0007C082E080937F0003C083E02C
:1001600080937F008FE08BBB8BB380958ABB89B374
:1001700090E0809590952BB330E0822393238230DA
:10018000910569F01CF4019739F02CC08430910579
:1001900051F0089761F026C0109280000BC081E0FA
:1001A0008093800007C082E08093800003C083E0DA
:1001B00080938000AEE7B0E01196EC911197F0E0EB
:1001C00012968C911297EE0FFF1FEE0FFF1FE05A51
:1001D000FF4FE80FF11D808113968C9381E003C0DF
:1001E00080E001C080E0813009F04CC0EEE7F0E033
:1001F00080818483038110E0E0E0E43008F042C0B5
:10020000CE2FD0E0EE23A1F0E130A9F021E08AE08A
:1002100090E02E1798F4AC01440F551F880F991FDA
:10022000880F991F880F991F840F951F2F5FF1CF9B
:1002300061E070E005C06AE070E002C0682F792FCD
:10024000C8010E949201AB019B01ADECBCEC0E9485
:10025000A6019695879596958795969587959C0185
:10026000220F331F880F991F880F991F880F991F1E
:10027000820F931F9A01281B390BCD57DF4F29831B
:10028000EF5FBBCFA3E8B0E0EC91F0E0E658FF4FA2
:1002900081E090E0008002C0880F991F0A94E2F785
:1002A00085BBEC91F0E0ED57FF4FE181EA3028F497
:1002B000F0E0E059FF4F808101C081E088BBE3E8B6
:1002C000F0E080818F5F8083843010F01092830093
:1002D000FF91EF91DF91CF91BF91AF919F918F915E
:1002E0007F916F915F914F913F912F911F910F914E
:1002F0000F900FBE0F901F9018958FEF87BB80EF68
:1003000084BB85E083BF92EB92BF80937E0081E047
:1003100089BF7894FFCF6FEF7FEF81E090E00E947C
:1003200055000895AA1BBB1B51E107C0AA1FBB1FA4
:10033000A617B70710F0A61BB70B881F991F5A9571
:10034000A9F780959095BC01CD010895A29FB001B9
:10035000B39FC001A39F700D811D1124911DB29FF9
:10036000700D811D1124911D0895EE0FFF1F059042
:0A037000F491E02D0994F894FFCFFA
:10037A000708090004050600010203000000000046
:0E038A00C0F9A4B0999282F88090040506078D
:00000001FF
