:040000000C94550007
:100004000C9400000C9444030C9400000C94000025
:100014000C9400000C9400000C9400000C9400005C
:100024000C9400000C9400000C94C9010C94000082
:100034000C9400000C9400000C9400000C9400003C
:100044000C9400000C9400000C9400000C9400002C
:100054000500040301020600000000409C45252E13
:1000640034664120252E3466410025352E31664301
:100074002025362E32664A0080C02D4E414E0000A7
:1000840001002D4E414E00494E460000040004007C
:100094005A00040060025E00020082027C0001003B
:1000A400860284000000F894EE27ECBBF1E0FBBF6D
:1000B400EBBFE5BF8DE0A2E0BB27ED938A95E9F79E
:1000C40080E098E0A0E6ED930197E9F7E0E9F0E03D
:1000D40085919591009761F0A591B5910590159042
:1000E400BF01F00105900D920197E1F7FB01F0CFFC
:1000F400EFE5EDBFE8E0EEBFC0E6D2E00C946003AC
:10010400AA93E881E7B98BE18A95F1F7369A349B93
:10011400FECF349AE4B1F5B10C941D040E948E0C08
:1001240016E000E030E0B898B998BA9ABB9ABC9A45
:10013400C09AC19AC298C398C4980000E6B3E1700B
:10014400F0E00E94FF0BAE2FE6B3E270F0E0F5950D
:10015400E7950E94FF0BEE0FEA2B0E2FB89AB99A7F
:10016400BA98BB98BC98C098C198C29AC39AC49ACA
:100174000000E6B3E470F0E00E94EF0B0E94FF0B76
:10018400AE2FE6B3E870F0E00E94ED0B0E94FF0B87
:10019400EE0FEA2BAE2FE6B3E071F0E00E94EB0B1A
:1001A4000E94FF0BEE0FEE0FEA2B3E2FE02FF0E044
:1001B400E130A0E0FA0711F400E008C0E230A0E06A
:1001C400FA0711F401E002C0E6E023C0E32FF0E0F7
:1001D400E130A0E0FA0711F430E00EC0E230A0E014
:1001E400FA0711F431E008C0E430A0E0FA0711F492
:1001F40032E002C0E6E00DC0452CA3E00A9FF00106
:10020400EC5AFF4FDF01E32FF0E0EA0FFB1F1491DC
:10021400E12F0E94950C249608950E94760C0E946A
:1002240087080E94880C19F40E94900806C00E9456
:1002340090080E9495080E942C0BA0917802B0911E
:10024400790280917A0290917B020E94DC0A0E94DA
:100254009E080E94A7080E94AA080E94DC0AE09354
:100264007C02F0937D0260937E0270937F020E9471
:1002740095080E94B3080E94BF0B09F008F405C05A
:100284000E94B3080E949E0806C0A0917B02AA2384
:1002940012F40E94B8080E94AA08E0E0F0E060E0CE
:1002A4007FE30E94BF0B09F008F401C009C00E945B
:1002B400AA08E0E0F0E060E07FEB0E94BF0B40F4AE
:1002C400E0937C02F0937D0260937E0270937F0240
:1002D400A0917F02AA23AAF00E94C2080E942C0BBC
:1002E4007F936F93FF93EF930E94AA080E94B30831
:1002F4000E94D50AAF91BF918F919F910E94C80827
:100304001CC00E94C2080E94C8080E942C0B7F9344
:100314006F93FF93EF93E0917C02F0917D026091E3
:100324007E0270917F02A0E0B0E080E89FE30E942B
:10033400DC0AAF91BF918F919F910E942C0B0E9478
:10034400690AE8BD28960895E3E07E2EAC9AAE9A39
:100354001BC0E4E07E2EAC98AE980CC0E1E07E2E8B
:10036400E0E0F0E068EC72E40E949E080E94CE088F
:10037400AC9AAE9AAD9AAF9A089577240E94B808C1
:100384000E94CE08AC98AE98AD98AF9808950E949C
:10039400DA08A0971A930A9314E000E1E6E0E2BFBA
:1003A400A0918002A11730F4E0918002EF5FE09306
:1003B400800289C0E0E0E09380020E94E808E0E067
:1003C400F0E06AEF73E40E94BF0B28F4D6DF1981D2
:1003D4000881A29665C1A0916402B09165028091E2
:1003E400660290916702E0E0F0E068EC72E40E943B
:1003F400BF0B09F008F406C0969ABFDF1981088183
:10040400A2964EC196988ADE5E2EF0E0309789F46B
:10041400E2E0E71569F00E94F1080E94710CA0E087
:10042400B0E080E090E0F9DEE4E0E71509F08CDF6D
:100434004AC0E130A0E0FA0749F4E2E0E71519F018
:10044400E1E0E71509F401C089DF3DC0E230A0E036
:10045400FA0741F40E94F608AFE8B2EC85EF9CE39A
:10046400DCDE31C0E330A0E0FA0741F40E94F60874
:10047400AFE8B2EC85EF9CEBD0DE25C0E430A0E021
:10048400FA0771F4E2E0E71519F0E4E0E41509F481
:1004940006C0E4E0E71511F05CDF01C055DF13C0CE
:1004A400E530A0E0FA0711F4969A0DC0E2E0E715F2
:1004B40019F0E1E0E41509F002C05FDF04C0E5E0F3
:1004C400E41509F49698A0918102A01730F4E09104
:1004D4008102EF5FE0938102D1C0E0E0E09381020A
:1004E400A3E00E94FD08A0E0B0E088EC92E40E9442
:1004F4002C0BE0936402F0936502609366027093A0
:100504006702A5E00E94FD080E941209E0936802B8
:10051400F093690260936A0270936B02A4E00E94F4
:10052400FD080E941209E0936C02F0936D0260933F
:100534006E0270936F02A7E00E94FD080E941209E8
:10054400E0937002F09371026093720270937302ED
:10055400A6E00E94FD080E941209E0937402F09341
:1005640075026093760270937702E0916C02F091C9
:100574006D0260916E0270916F020E942109A09138
:100584007002B091710280917202909173020E9484
:10059400DC0AA0917402B091750280917602909168
:1005A40077020E94DC0AAFE6B2E183E09FE30E9497
:1005B4002C0BA0E0B0E080E491E40E942C0B0E949C
:1005C400E8080E942C09E0936002F09361026093B2
:1005D400620270936302FE013296FA93EA93E2E6B2
:1005E400F0E0FA93EA93E0917002F0917102609165
:1005F4007202709173020E9421090E94710CE091B1
:100604007402F09175026091760270917702A09164
:100614006C02B0916D0280916E0290916F020E9403
:10062400DC0A0E943109FE017296FA93EA93EEE61F
:10063400F0E0FA93EA93E0916402F091650260912C
:100644006602709167020E94710CE0916002F09161
:10065400610260916202709163020E9431098DD03F
:10066400E0E0EA93A0E07CD0DE011296A7D0E0E0BF
:10067400EA93A1E075D0DE015296A0D019810881D9
:10068400A2960EC00E94DA08E0B3E870F0E00E947F
:10069400ED0B309721F062DEE2E07E2E01C06DDECC
:1006A400E991EFBFF991E991B991A9919991899152
:1006B40079916991F9901990099018958C9A8D9A6D
:1006C400A49AA59AA69AA79A8E9A939AEBB7E068E9
:1006D400EBBFE4E0E5BFE0E0E4BFE0E8EABFE5E06B
:1006E400E3BFE6E0E2BFE0E0ECBFE1EAEFBDE3E058
:1006F400EEBDE0E0EDBDECBDE7BDE6BDEBBDEABDA2
:10070400E9BDE8BDE1E0E9BFE0E0E7B9E3E8E6B967
:10071400E0E0E0BFA0E163D07894FFCFFFCFAA93DD
:10072400E5B3E07FAE2FE881E295EF70EA2BE5BBFD
:100734008DE08A95F1F7D89A8DE08A95F1F7D898EB
:100744008DE08A95F1F777C0AA93A881E8DFE88164
:10075400E295E883A881E3DF85E88A95F1F76BC029
:10076400AA93E881F0E0EE57FD4FE081A981AE0F36
:10077400EBDF6980988022960895A2E00E943809F0
:10078400ACE0E2DFA1E00E943809E0E09E2E6E2E8C
:100794000895AA93A881AA3011F0681448F0E0E003
:1007A400EA939394A92DDCDFA881AA3009F443C00D
:1007B4006394DA9AA881C8DFDA983DC0BA93AA9301
:1007C4001A93A981BA81ED91A983BA831E2FE030CF
:1007D40019F0A12FDEDFF5CF188123960895AA938F
:1007E400E4B3EF60E4BBD09AD29AD19AD898DA985D
:1007F400D9988880E881E058E0938402E881E05445
:10080400E0938502A4E1B0E00E942C0A0E943E0914
:100814000E943E090E943E09A0E281DF88EC90E03C
:100824000197F1F7A8E290DFA4E08EDFA5E88CDF62
:10083400A6E08ADFA2DF21960895BA93AA931A93B9
:100844000A93AA81BB8112960E94580C309729F111
:10085400AA81BB8114960E94580C8F01309761F0D5
:100864000230E0E01E0780F0F80131978F01AA8181
:10087400BB811496ED93FC93AA81BB8112960E94CE
:1008840046093197AC81A083AA81BB810E94580C90
:10089400FF2312F00E94460906C0AA81BB81EFEF34
:1008A400FFEFED93FC9319810881259608950E942A
:1008B4004C09E0E8EA83EFE3EB830E948E0CEE85BB
:1008C400FF85EF3FAFEFFA0749F4E885F985FA931E
:1008D400EA93AEE7B0E00E947B07B9C0EF3FAFE711
:1008E400FA0749F4E885F985FA93EA93AFE7B0E0AB
:1008F4000E947B07ACC0AB85A73010F0E6E0EB8725
:100904001B85E12F1150E03019F00E945309F9CFF3
:10091400EC85FD856E857F850E94880C21F430E08E
:100924000E9453092DC03B850E94620909F008F416
:100934000BC00E9453090E94620928F00E946A09B0
:100944000E946F09F8CF0DC00E94620940F40E9412
:100954006A090E9478090E947F093150F5CF0E94EC
:100964005309EC85FD856E857F850E9484090E946C
:100974007F090E94620920F00E946A090E946F099F
:1009840010E0EB85E117B8F1AC81BD818E819F81C8
:100994000E948B090E948409DF01CB010E94D207C7
:1009A400EC83FD836E837F830E9490080E946A0912
:1009B4000E947A0B0E94690A0E2F0E948F090E94DE
:1009C4009609FF27662777270E94A20AAC81BD817A
:1009D4008E819F810E942C0B0E946A090E942C091F
:1009E4000E947F09E12F1F5FE03059F60E948F09B2
:1009F400EEE2EC93C6CF0E949B093197AA85A083AF
:100A040030302CF43195A885B985EDE203C0A88572
:100A1400B985EBE2EC930E949B090E949B093197F4
:100A2400BF01A32FEAE00E94120CE05DDB01EC930E
:100A34000E949B093197BF01A32FEAE00E943C0C5E
:100A4400E05DDB01EC93A885B985E0E0EC930E94BE
:100A5400950C60960895BA93AA93EF9761970E94B4
:100A64008C0C10E0FE01E85AFF4F0190F081E02D5C
:100A7400E887F987FE01EA5AFF4F0190F081E02DE3
:100A8400EE83FF83AE81BF81E0E0F0E0ED93FC9361
:100A9400DE01A45ABF4F0E9446093197E4912E2FDC
:100AA400E03009F4E9C1E12FE03039F4253211F4E2
:100AB40011E002C00E94A109DEC1E130C1F4253277
:100AC40019F40E94A109D6C112E0E0E0ED8B00E028
:100AD4002D3211F401E0CFC12B3219F4EBE2ED8B8E
:100AE400CAC1203219F4E0E2ED8BC5C102C0E23084
:100AF40039F450E013E0203311F40068BCC102C0A3
:100B0400E33091F4203310F02A3308F007C0AAE050
:100B14005A9F502DE22FE0535E0FADC140E02E32BC
:100B240011F414E0A8C10FC0E43099F4203310F09C
:100B34002A3308F008C00062AAE04A9F402DE22F41
:100B4400E0534E0F98C12C3619F4026015E093C19E
:100B540003C0E53009F08FC1E22FE33659F40E9457
:100B6400A8090E94AF090E94A809A481AA930E941F
:100B7400B60980C1E53411F0E53609F403C0E63660
:100B840009F048C0FE017696EE87FF870E94BC09F3
:100B94000E945C0C0E94C3090E94C809AD85AA2367
:100BA40032F0AD89AB3259F0A03281F017C00E9407
:100BB400CA090E94360A0E94C309EDE2ED8B07FFC1
:100BC40005C0ED89EA930E94B60908C0EE85FF8549
:100BD4003196EE87FF873197AD89A08305FF46E004
:100BE400263651F40E94CA090E94710C4A93AB89BB
:100BF400BC890E94E90709C00E94CA090E94710CBD
:100C04004A932A93AC89BD8952DEFE0176960E94EE
:100C1400CF091EC0E33739F40E94C8090E94D709DE
:100C24000E94CF090EC0E037C1F40E94C8090E9497
:100C3400D709EE87FF87AE85BF850E9494071E2FD4
:100C440008600F77403011F0411708F001C0142FED
:100C540040E0E0E0EC8B30E06DC0E43611F0E936C2
:100C640011F4046002C0E537A1F4EAE0EC8B01FF63
:100C740008C0E0E0FAEC6AE97BE30E94DC091AE0D0
:100C840022C0E0E1F7E260E070E00E94DC0915E0D8
:100C94001AC0E83511F4086003C0E83709F0EAC067
:100CA400E0E1EC8B01FF08C0E0E0F0E060E070E11F
:100CB4000E94DC0918E007C0E0E0F0E160E070E0C9
:100CC4000E94DC0914E0403011F00F7701C041E0CC
:100CD40001FF08C00E94C8090E94BC0914960E9422
:100CE4005C0C0FC002FF07C00E94C8090E94D7090C
:100CF4000E94FA0B06C00E94C8090E94D709662701
:100D04007727EA87FB876C877D8702FF12C0AD8552
:100D1400AA2342F40E94CA090E94E30B0E94C30959
:100D2400EDE2ED8BED89E03019F01F5F4F5F01C0FC
:100D34000B7F342F00FD14C0151710F4351708F07D
:100D44000FC007FF08C002FF04C00B7F2D8911509C
:100D540001C020E301C020E20E94A1095150ECCF60
:100D6400141790F4006102FF06C00E94E10909F023
:100D7400515011504150E0E3EA930E94B6095030BB
:100D840009F051504150ECCF312FEC89E030B9F4E7
:100D94003030A1F003FF06C0EE85FF852591EE8774
:100DA400FF8705C0AE85BF852D91AE87BF870E94A2
:100DB400A109503009F051503150EACF51C00E947E
:100DC400F3090E94170C2E2F2A3030F003FF02C0C3
:100DD400295C01C0295A01C0205D04FD21C02133D2
:100DE40060F4A889B9898A899B89A130E0E0BE07AB
:100DF400E0E08E07E0E09E0709F40BC0431740F4DF
:100E0400531710F000FF01C010C020E207FF08C014
:100E140020E3006102FF04C00E94E10909F051507F
:100E24000E94A109503009F0515031500E94F30939
:100E34000E94480C0E94C309EC89A889B9898A894F
:100E44009B89FF27662777270E94170C0E94DC09DD
:100E5400E889F9896A897B890E94880C09F0AFCFF7
:100E640000FF08C0503031F05150E0E2EA930E9494
:100E7400B609F8CF10E00CCEAE81BF810E94580CA9
:100E84000E94930CEF966F960895FF92F82E269782
:100E94000E948E0C0E94FC09309719F4EFEFFFEFCB
:100EA40023C0DE0116960E94DF0B8D010E94FC090F
:100EB400EE83FF83E0E0E887E987DE011A960E946B
:100EC400DF0B0E94580CFA93EA931A930A93EFE10A
:100ED400F4E0FA93EA93DE011A96BDDD9F01AE8138
:100EE400BF81E0E0EC93F9010E94950C2A96FF90F3
:100EF4000895BA93AA93E991F991A991B991CD0171
:100F040005900D920020E1F7FC010895BA93AA938D
:100F1400A991B991EE27FF276D91662311F03196BF
:100F2400FBCF0895BA93AA93AA27BB27E991F99115
:100F34000590002011F01196FBCFFD0108950E9449
:100F4400760C7B816A81F981E88177FB770F67FDF5
:100F54007160972F9E5781F078F0983190F4AA270A
:100F6400BB27882708948795B795A7959A95D1F7B5
:100F7400EA23FB23682305C0E8947727EE27FF279D
:100F840066276F77769508F4606877F9A991B99127
:100F940089919991EA17FB076807790797FB0895E8
:100FA4000E94760C0E94670C0E94A1070E946C0CA0
:100FB40019F40E94A70809C0E6F70E94A708A0E058
:100FC400B0E080E89FE30E94D50A2496089562D198
:100FD400E0E0EA83EFE3EB831A930A93EB85FC8565
:100FE400EF3FAFEFFA0731F40CD2A6E8B0E00E946D
:100FF4007B0787C0EF3FAFE7FA0731F402D2A7E8D7
:10100400B0E00E947B077DC0AC85AA2352F4E98539
:10101400FA856B857C850E94360AF8D1FCD1EDE215
:10102400EC93A885A73010F0E6E0E8871885E12F57
:101034001150E03021F0F6D16CD1F9D1F8CFFCD1C8
:101044000E94DC0AE3D110E08CD0F1D1F5D10E94EA
:10105400BF0B68F0E7D14AD1EAD11F5F173230F0F5
:10106400D0D1ABE8B0E00E947B074BC0EFCF10308B
:1010740021F4D1D1E0E3EC9320C0E12F1150E03012
:10108400E1F0D0D146D13ED1DF01CB010E94D2079D
:10109400CED1D2D10E947A0B0E94690A0E2FBBD105
:1010A40043D1F0E0BFD10E94FA0B0E94A20A0E9431
:1010B4002C0BCBD1CFD0AAD1E0CFE885E030E9F03A
:1010C400AAD1EEE2EC93E885E150E887EF5FA9F05E
:1010D400BCD10CD19BD1E985FA856B857C850E94B6
:1010E400690A0E2F98D120D1F0E0AFD10E94FA0BFB
:1010F4000E94A20AAFD08AD1E6CFAE81BF81E0E0E0
:10110400EC93198108812D960895E0917802F0916D
:10111400790260917A0270917B020895EC81FD81DD
:101124006E817F810895A0917802B09179028091B7
:101134007A0290917B020895E0937802F093790209
:1011440060937A0270937B0208950E94620C089562
:10115400A0917C02B0917D0280917E0290917F02E9
:101164000895E0E0F0E060E87FE30895E0E0E093D4
:101174007802E0937902E0937A02E0937B02089587
:10118400C4DFA0E0B0E08FE793E408950E942C0B45
:101194000E94690AEABDF4CFE0E0F0E060E070E0AC
:1011A4000E94710CA0E0B0E080E090E00C940F018C
:1011B4000A921A92FA926A937A938A939A93AA93C6
:1011C400BA93EA93FA93EFB7EA930895A091600271
:1011D400B091610280916202909163020895EDECF6
:1011E400FCEC6CEC7DE30895E0E0F0E060E070E09E
:1011F4000E94710C08950E948200662777270E943E
:10120400A20AA0E0B0E080EC9FE30E942C0BDF0177
:10121400CB01E0E0F0E060E874E40E947A0B08950A
:10122400A0E0B0E080E291E40E942C0BDF01CB014E
:10123400E0E0F0E060E871E40E947A0B0895A09188
:101244006802B091690280916A0290916B020E94D7
:10125400DC0A08950E947B0C0E94D50A08950E941E
:10126400710C88E00E9447072C9608950E94A603FB
:10127400A3E0B0E00C942C0AA0E30E94910388EC54
:1012840090E00197F1F70895ED91FD913196FE9369
:10129400EE930895BA93AA932497E0E0E883E98350
:1012A4000895AC81BD818E819F81E0E0F0E060E231
:1012B40071E40E942C0BEC83FD836E837F8308957D
:1012C4002DDFAC85BD858E859F850E94BF0B08955B
:1012D400AC85BD858E859F85089581DF0E942C0B8A
:1012E400EC87FD876E877F873F5F0895E0E0F0E03D
:1012F40060E271E40E942C0B0895EC87FD876E87F1
:101304007F870895A0E0B0E080E09FE30E94DC0ABC
:10131400089565DF0E942C0B0895A885B985119660
:10132400A887B98711970895E02FE05DEC93E02F2B
:101334000895E885F9853196E887F98708952A9311
:10134400AF81B885E985FA8509950895FE01E65AC5
:10135400FF4F0190F081E02D08953497DE01A65AE5
:10136400BF4FED93FC930895AF81B885E985FA8565
:1013740009950895DE01A65ABF4F0D90BC91A02D8A
:101384000895EA87FB876C877D870895DFDFE5CFC3
:10139400EA85FB856C857D850895EE87FF87AE859C
:1013A400BF850E9488071E2F0895E4DF14960E94CB
:1013B400580C0895E88BF98B6A8B7B8B08950B7F0F
:1013C400ED89EA93DE01A95ABF4F0D90BC91A02D7F
:1013D400FE01E75AFF4F0190F081E02D099550304E
:1013E4000895E889F9896A897B89AA85BB858C85F2
:1013F4009D850895DE011C960E94DF0B0E94580C07
:101404000895EE81FF81FA93EA930895E987FA87B4
:101414006B877C870895AE81BF811196AE83BF83AD
:1014240011970895AA81BB818C819D810895EA83D7
:10143400FB836C837D830895EA81FB816C817D81CC
:10144400A985BA858B859C850895A985BA858B85E0
:101454009C850895109639F080ED97E00197F1F797
:10146400A8951197C9F7089530976040704009F026
:1014740070580895552342F4503811F4E0FF04C025
:101484003196691F791F6BF050E8572711F45F9369
:10149400CFC05F3F31F0660F000C57956795752FED
:1014A40008955F9300200AF0CFC0C8C050E8192EF9
:1014B4001522880F991F9527550F879550E8072EF9
:1014C4000522660F771F7527550F67950895689451
:1014D40001C0E8945F93F2DF703818F07F3F08F49E
:1014E400A7C056E1571BAAF4519558300EF4593051
:1014F40030F0EFEFFFEF6FEF7FE777F91AC0772750
:101504005523B9F0EE0FFF1F661F771F5A95D1F7C9
:1015140010C07727583028F0EF2FF62F672F585038
:10152400F9CF552331F076956795F795E7955A9558
:10153400D1F700200AF445D15F910895689401C061
:10154400E894309760407040B1F0002426F077238F
:1015540012F4009436D1172E7EE1112032F07A95E0
:10156400EE0FFF1F661F111CF9CFEF2FF62F612D11
:101574005F938ADF5F9108954F93AF01FD01DA0114
:10158400AB01BC01CA01402D012C142E4F910895CA
:10159400EA0FFB1F681F0895E095F0956095EF5FD3
:1015A400FF4F6F4F08955F9381DF903871F150E8DA
:1015B400152604C05F937ADF903839F1703821F131
:1015C400572F591B2BF112F4D7DFFACF583118F0EB
:1015D400AA27BB278827583028F0AB2FB82F882795
:1015E4005850F9CF552329F08695B795A7955A9564
:1015F400D9F7502D512572F0CBDF38F46795F79564
:10160400E795739513F420C0B7DF3EDF5F9108952B
:10161400D8F7FBCFEA1BFB0B680B51F010F40094D6
:10162400BBDF662392F3EE0FFF1F661F7A95CBF79D
:10163400EE27FF27662777275F910895EFEFFFEFE7
:101644006FE77FEF5F910895EFEFFFEF6FE77FE7BD
:101654005F9108955F932ADF703851F3903841F316
:1016640001240894791F23F41CF300203AF3ECCFEF
:101674000F921F932F933F934F931127222799275C
:10168400689FA0018F9F302D410D591F6B9F300D16
:10169400411D591F8E9F27D0BF9F25D06A9F23D0FD
:1016A400BE9F1DD0AF9F1BD0AE9F110D291F391FA8
:1016B400491F591FE32FF42F652F522F4F913F914C
:1016C4002F911F910F9066232AF0550FEE1FFF1FD5
:1016D400661F02C073954BF2CDDE5F910895100D25
:1016E400211D391F02C0200D311D491F591F0895A6
:1016F4005F93DCDE703821F411200AF49FCFA4CF6D
:10170400903809F495CF01240894970B1BF4D4F373
:101714000020F3CF792F1F932F933F934F931124DE
:101724001127222733274427552790E2AE17BF07F6
:101734008607410730F0AE1BBF0B860B410B0894A4
:1017440001C08894551F221F331F111CAA1FBB1FE1
:10175400881F441F9A9551F7F901612D4F913F91CC
:101764002F911F91662332F0550FEE1FFF1F661F46
:101774007A9543F27FDE5F91089599239AF0772357
:1017840042F0971748F029F4AE17BF07860720F0F8
:1017940031F098948894089598940894089518942E
:1017A400889408957723C2F7971798F3A9F7EA174F
:1017B400FB07680788F399F3ECCF0024AF0DB01D45
:1017C4000895F09560957095E195FF4F6F4F7F4FA9
:1017D4000895F595E795F595E795F595E795F595CC
:1017E400E7950895FE2FFF0FFF0B6F2F7F2F0895AE
:1017F4006F2F660F660B762F0895EF2BE1E009F04B
:10180400E0E00895002498E0AA0F001C0E1A10F4DA
:101814000E0E01C0A1609A95B9F7EA2FA02D089584
:1018240039D0F0DF0EF4E19508953F934F935F9321
:10183400002411244427552730E2AA0FBB1F881F18
:10184400991F001C111C441F551F0E1A1F0A460B1A
:10185400570B28F40E0E1F1E461F571F01C0A16010
:101864003A9559F7FD01BC01D001CA015F914F912E
:101874003F910895E894A7FF02C0A1956894E7FDFD
:10188400E195C0DFEA2F0EF4E1950895CEDFFD0166
:10189400BC010895E894E7FF02C0E1956894A7FFAE
:1018A40004C0A19500F8039400FA0895ED91FC9109
:1018B40011970895ED91FD916D917C911397089581
:1018C400E881F9816A817B810895A881B9818A813F
:1018D4009B810895E883F9836A837B8308957A93CF
:1018E4006A93FA93EA9308959A938A93BA93AA937C
:1018F4000895182E862F612D192E972F712D1B2ECA
:10190400BF2FF12D1A2EAE2FE12D08953097604090
:10191400704008955A934A933A932A931A930A93D8
:1019240008955D814C813B812A8119810881089544
:00000001FF
