:100000000C942A000C9447000C9447000C94470071
:100010000C9447000C9447000C9447000C94470044
:100020000C9447000C9447000C9447000C94AC00CF
:100030000C9447000C9447000C9447000C94470024
:100040000C9447000C9447000C9447000C94470014
:100050000C94470011241FBECFE5D8E0DEBFCDBF12
:1000600010E0A0E6B0E0ECE3F2E002C005900D92F3
:10007000AA37B107D9F720E0AAE7B0E001C01D9286
:10008000AA37B207E1F70E94F2000C941C010C940D
:10009000000080EF8BBB8BB380958ABB89B390E067
:1000A0009C01209530958BB390E08223932380327E
:1000B000910569F01CF4409741F00FC08034910520
:1000C00041F08038910539F008C060E00AC061E075
:1000D00008C062E006C063E004C060E070E080E059
:1000E00008958FE08BBB8BB380958ABB89B390E07A
:1000F0009C01209530958BB390E08223932382302E
:10010000910561F01CF4019739F00EC0843091051F
:1001100039F0089739F008C070E009C071E007C0F5
:1001200072E005C073E003C070E080E0089581E0F4
:100130000895462F9C013695279536952795ABE770
:10014000B4E10E940D01969587959C01429FC001E4
:10015000439F900D112408951F920F920FB60F9296
:1001600011242F933F934F935F936F937F938F93BC
:100170009F93AF93BF93EF93FF9382EB82BF0E9455
:1001800049008823F1F0E62FF0E0EE0FFF1FEE0F9D
:10019000FF1FE05AFF4FE70FF11D6081E62FF0E0EF
:1001A000E059FF4F808188BB660F862F880F880F2C
:1001B000680F8FE19EE40E9499008ABD9BBD88BDB7
:1001C00099BDFF91EF91BF91AF919F918F917F91D9
:1001D0006F915F914F913F912F910F900FBE0F90B4
:1001E0001F9018958FEF87BB80E184BB85BB80ECA7
:1001F00088BB80E381BB85E083BF82EB82BF82EE58
:100200008FBD8AE18EBD1DBC1CBC8EE487BD8FE115
:1002100086BD81E089BF7894FFCFA29FB001B39FD4
:10022000C001A39F700D811D1124911DB29F700DFF
:0C023000811D1124911D0895F894FFCF4A
:10023C000708090004050600010203000000000085
:0A024C00C0F9A4B0999282F88090E6
:00000001FF
