:100000000C942A000C9447000C9447000C94470071
:100010000C9447000C9447000C9447000C94470044
:100020000C9447000C94A6000C9447000C946A00B2
:100030000C9447000C9447000C9447000C94470024
:100040000C9447000C9447000C9447000C94470014
:100050000C94470011241FBECFE5D8E0DEBFCDBF12
:1000600010E0A0E6B0E0E0EEF1E002C005900D92F5
:10007000AE36B107D9F720E0AEE6B0E001C01D9280
:10008000A137B207E1F70E94D3000C94EE000C9464
:100090000000DC018C918F5F8C9390E018C0292FB9
:1000A000092E000C330BFD01E20FF31F80818A3013
:1000B0006CF01082A9014F5F5F4F4230510534F45C
:1000C000FD01E40FF51F80818F5F80839F5F923079
:1000D00034F308951F920F920FB60F9211248F934D
:1000E0009F93EF93FF9382EB82BFE0916E000E2E01
:1000F000000CFF0BE659FF4F81E090E0008002C04A
:10010000880F991F0A94E2F785BBE0916E000E2ECE
:10011000000CFF0BE159FF4FE0810E2E000CFF0B8E
:10012000E05AFF4F808188BB80916E008F5F809383
:100130006E00823014F010926E00FF91EF919F914B
:100140008F910F900FBE0F901F9018951F920F92D6
:100150000FB60F9211242F933F934F935F936F939A
:100160007F938F939F93AF93BF93EF93FF9385E814
:100170008DBD8EEE8CBD8FE690E00E94490082B36B
:10018000805882BBFF91EF91BF91AF919F918F916A
:100190007F916F915F914F913F912F910F900FBE83
:1001A0000F901F9018958FEF87BB80EF84BB80E87E
:1001B00081BB85E083BF92EB92BF1CBE1FBC94E065
:1001C0009EBD95E89DBD9EEE9CBD17BC16BC1BBC9C
:1001D0001ABC19BC18BC89BF7894FFCFF894FFCF24
:0E01E000C0F9A4B0999282F880900405060739
:00000001FF
